:020000040800F2
:10000000E806002005010008631F0008451D0008E0
:10001000611F00082D020008F52400080000000000
:10002000000000000000000000000000671F000842
:100030006702000800000000651F0008691F000833
:100040001F0100081F0100081F0100081F01000810
:100050001F0100081F0100081F0100081F01000800
:100060001F0100081F0100081F0100081F010008F0
:10007000310200081F0100081F0100081F010008CD
:100080001F0100081F0100081F0100081F010008D0
:100090001F0100081F0100081F0100081F010008C0
:1000A0001F0100081F0100081F0100081F010008B0
:1000B000E91F00081F0100081F0100081F010008B8
:1000C0001F0100081F0100081F0100081F01000890
:1000D0001F010008E92400081F0100081F01000893
:1000E0001F0100081F0100081F010008DFF810D0E1
:1000F00000F02CF80048004705290008AFF3008005
:10010000E80600200648804706480047FEE7FEE76D
:10011000FEE7FEE7FEE7FEE7FEE7FEE7FEE7FEE7B7
:10012000E51F0008ED000008D2B201E000F8012B45
:10013000491EFBD270470022F6E710B513460A4667
:1001400004461946FFF7F0FF204610BD064C074D48
:1001500006E0E06840F0010394E807009847103497
:10016000AC42F6D3FFF7C6FFCC2D0008EC2D0008FB
:1001700070B5044600688168C943C9071CD181680D
:1001800021F00101816000F06BFC05460FE000BF2B
:1001900000F066FC401B022809D9A06A40F010005C
:1001A000A062E06A40F00100E062012070BD2068BA
:1001B0008068C043C007EBD0002070BDF8B50026B2
:1001C0000446009600688168C943C90728D0816841
:1001D00041F001018160134813490068B0FBF1F060
:1001E00000E0401E00900028FBD100F039FC0546DD
:1001F00011E000BF00F034FC401B02280BD9A06ABC
:1002000040F01000A062E06A40F00100E06284F873
:1002100024600120F8BD20688068C043C007E9D190
:100220000020F8BD1400002040420F00FEE700004F
:10023000014800F003BA00002401002030B590F816
:1002400040500124AC40C56B6C6004686360436837
:10025000102B036803D099600068C26030BD9A60BB
:100260000068C16030BD704772B6FEE7F8B5002483
:10027000009490F824202546012A12D0012280F80B
:1002800024204A681F23072A0DD20668776B521E66
:1002900002EB820293409F430B6893401F437763B6
:1002A00019E00220F8BD06680D2A0AD2376BD21F6A
:1002B00002EB820293409F430B6893401F433763D6
:1002C00009E0F76A0D3A02EB820293409F430B6804
:1002D00093401F43F7620A68072306680A2A0AD375
:1002E000F7680A3A02EB420293409F438B689340BF
:1002F0001F43F76008E0376902EB420293409F43D7
:100300008B6893401F4337610A68102A01D0112A75
:1003100020D1124B02689A4217D193681B0219D45C
:10032000936843F4000393600968102912D10C49C3
:100330000C4A0968B1FBF2F101EB8101490000E0D0
:10034000491E00910029FBD104E0816A41F020019F
:100350008162012480F824502046F8BD0024014029
:100360001400002040420F000068C06C704700007D
:100370002DE9F0414FF0000704003D467ED0A06A11
:10038000002628B9E66284F82460204600F07EF852
:100390002046FFF7EDFEA16AC90600D420B1A06A8D
:1003A00040F01000A06269E0A16A21F4885141F098
:1003B0000201A1626268E169237B0A4347EA4301C3
:1003C0000A43A1684FF48077B94209D0012907D0C8
:1003D0005FF0000194F814C0BCF1010F02D00AE0F4
:1003E0003946F7E7F3B1A36A43F02003A362E36A57
:1003F00043F00103E3622368D3F804C02CF4694C92
:100400004CEA010CC3F804C021688B68DFF870C0A7
:1004100003EA0C0313438B60A168B9420BD0012996
:1004200009D00CE0DFF85CC0A3690CEB43330B434D
:1004300043F40061DFE7218A0D05A5F580152168E9
:10044000CB6A23F470032B43CB62216889680E4B7F
:100450001940914208D1E662A16A21F0020141F0FF
:100460000101A162BDE8F081A06A20F0020040F025
:100470001000A062E06A40F00100E0620120F1E7B4
:10048000FDF7E1FF00E0FFFFFE0E1FFF00B585B0A6
:100490000021009101910291039100680E49884268
:1004A00018D10E48816941F400718161816901F4BC
:1004B00000710491816941F0080181618069694698
:1004C00000F00800049001200090032001900448EF
:1004D00000F0D6F905B000BD002401400010024034
:1004E000000C014070B5044690F8240001280DD09E
:1004F000012084F824002046FFF760FE02004FF040
:10050000000005D084F82400104670BD022070BDA4
:10051000A16A40F20123994341F48071A1621F4D09
:1005200023681F49AB4218D10E6816F4702F14D0FF
:10053000A66A46F48016A6620E68760505D5A66AF8
:1005400026F4005646F48056A662A66AF6040AD53A
:10055000E66A26F00606E66206E0A66A26F480163B
:10056000A6625E68E9E7E06284F824006FF00200AA
:10057000186020688368C3F34243072B05D1A84263
:1005800008D1096811F4702F04D0816841F48011FA
:100590008160B9E7816841F4A001F9E700280140D2
:1005A0000424014010B590F821100024022903D042
:1005B0000421816301243DE001680A6822F00E02F3
:1005C0000A6001680A6822F001020A601A4A01689A
:1005D000914201D1012121E0174A1432914201D107
:1005E00010211BE0144A2832914201D1891515E0EF
:1005F000114A3C32914201D189140FE00E4A503227
:10060000914202D14FF4803108E00B4A64329142AA
:1006100002D14FF4801101E04FF08071064A083A90
:100620005160012180F82110002180F82010416BD9
:1006300001B18847204610BD080002402DE9F05F57
:10064000C16B0C6801680B68D0F840C0042202FA44
:100650000CF2494DDFF824A1494E4A4FDFF828B18A
:10066000DFF828E122422CD05A072AD50A689206E0
:1006700003D40A6822F004020A600168A94201D189
:10068000042219E0514501D1402215E0B14202D1C6
:100690004FF4806210E0B94202D14FF480420BE087
:1006A000594502D14FF4802206E0714502D14FF442
:1006B000800201E04FF080622F4908394A60C16A28
:1006C0003BE04FF0020808FA0CF818EA040F4FF06C
:1006D00000094FF0010235D05FEA837832D50B680C
:1006E0009B0605D40B6823F00A030B6080F82120D9
:1006F0000168A94201D1022219E0514501D120220D
:1007000015E0B14202D14FF4007210E0B94202D1BB
:100710004FF400520BE0594502D14FF4003206E08D
:10072000714502D14FF4001201E04FF000721249FE
:1007300008394A6080F82090816A00291AD0BDE803
:10074000F05F0847082505FA0CF5254212D01B0773
:1007500010D50B6823F00E030B6090F84010C36BAC
:1007600002FA01F15960826380F8212080F820901C
:10077000016BE2E7BDE8F09F080002401C00024068
:100780003000024044000240580002406C00024029
:1007900030B528B308C8134914221944B1FBF2F14B
:1007A0008900C16310498163022141771A6843F6C9
:1007B000F0718A43D0E900142143D0E902452C436B
:1007C000214304692143446921438469214311433E
:1007D000196000214163012242770177084630BD4C
:1007E000012030BDF8FFFDBF0000024070B5044697
:1007F00090F82000002501280CD0012084F820006A
:1008000094F821600020012E06D084F820000225F3
:10081000284670BD022070BD022684F82160A063C6
:100820002068066826F0010606602046FFF706FDF0
:10083000E06A00282068016802D041F00E0106E05D
:1008400021F0040101602068016841F00A010160A3
:100850002068016841F001010160D9E770B50446E4
:1008600000F0FEF80546601C02D0044800780444FD
:1008700000F0F6F8401BA042FAD370BD080000203B
:100880002DE9F84FDFF8B891002409F1040A0AF1C4
:10089000040B23460F270BF1040EC9E00125A540E8
:1008A0002A40AA427DD1674ED1F804C0ACEB0608BD
:1008B000B44532D014DCBCF1030F3AD009DCBCF1F2
:1008C000000F2AD0BCF1010F1CD0BCF1020F31D1B6
:1008D0001DE0BCF1110F17D0BCF1120F2AD119E0A5
:1008E000B8F5881F19D006DCB8F5803F15D0B8F5EB
:1008F000801F1FD111E0B8F5001F0ED0B8F5041FFE
:1009000018D10AE0CB6815E0CB681B1D12E0CB685C
:1009100008330FE0CB680C330CE08B682BB1012B54
:100920004FF0080303D0456104E0042302E00561B1
:1009300000E00023FF2A01D8064601E000F104068A
:100940004FEA840501D9A5F12005D6F8008007FA01
:1009500005FC28EA0C0803FA05F548EA0508C6F87C
:1009600000804D68ED0062D5374DAE6946F0010656
:10097000AE61AD6924F0030605F001050095334D25
:1009800006EB050CDCF80850A607360F07FA06F848
:1009900025EA0805DFF8B880404503D14FF000088C
:1009A00017E044E0DFF8AC80404502D14FF0010889
:1009B0000FE0DFF8A480404502D14FF0020808E0C4
:1009C000DFF89880404502D14FF0030801E04FF076
:1009D000040808FA06F848EA0508CCF808804D68CB
:1009E000D9F80060ED034D4601D5164300E096436B
:1009F0002E604D68DAF80060AD03554601D5164308
:100A000000E096432E604D68DBF80060ED025D4625
:100A100001D5164300E096432E604D68DEF8006075
:100A2000AD02754601D5164300E096432E60641C66
:100A30000D682A46E5407FF431AFBDE8F88F00002D
:100A400000040140000011100010024000000140AD
:100A500000080140000C014000100140001401405A
:100A60000148806870470000080000200248816843
:100A7000027811448160704708000020074810B5D3
:100A8000016841F010010160032000F075F80020BA
:100A900000F006F800F024F8002010BD002002400D
:100AA00070B50D4D04464FF47A712878B1FBF0F023
:100AB0000A490968B1FBF0F000F062FB48B9102C5C
:100AC00007D200222146501E00F036F800206C604C
:100AD00070BD012070BD000008000020140000203F
:100AE0000C4808B5816941F001018161816901F01B
:100AF00001010091C16941F08051C161C06900F0FC
:100B0000805000900448416821F0E06141F000719C
:100B1000416008BD0010024000000140002809DBD0
:100B200000F01F02012191404009800000F1E02007
:100B3000C0F8001170470000F0B40E4B1B680C4663
:100B4000C3F30223C3F10705042D00D90425191DA1
:100B5000072901D2002300E0DB1E012606FA05F179
:100B6000491E214099409E40761E16403143F0BCFC
:100B700001F044BD0CED00E0064900F007020868F2
:100B80004FF6FF03184040EA0220034A1043086072
:100B9000704700000CED00E00000FA052DE9F84375
:100BA00005460078354CC00754D0E0690026C000E7
:100BB00008D4E06940F08050E061E069012600F06F
:100BC000805000902E480168C90512D40168804603
:100BD00041F480710160FFF743FF074605E000BF65
:100BE000FFF73EFFC01B642823D8D8F80000C005DB
:100BF000F6D5206A10F4407021D0A98801F4407124
:100C000081421CD0206A1F49012220F440700A60F2
:100C100000220A602062C00711D0FFF721FF0746BB
:100C200041F2883808E000BFFFF71AFFC11B4145B9
:100C300002D90320BDE8F883206A8007F4D5206A32
:100C4000696820F44070084320621EB1E06920F01A
:100C50008050E0612878800705D56068A96820F495
:100C60004040084360602878C00605D56068E968A0
:100C700020F48000084360600020DBE700100240A1
:100C800000700040400442422DE9F0470F46050045
:100C900061D0434E306800F00700B84209D2306896
:100CA00020F0070038433060306800F00700B84299
:100CB00051D128683B4C810712D5400703D56068A5
:100CC00040F4E06060602878000703D5606840F475
:100CD000605060606068A96820F0F00008436060C0
:100CE0002878C00728D06868012810D02168022819
:100CF00010D0890700292EDA616821F00301014331
:100D00006160FFF7ADFE804641F288390DE0216851
:100D10008903EFE78901EDE7FFF7A2FEA0EB0801E9
:100D2000494502D90320BDE8F0876068696800F092
:100D30000C00B0EB810FEFD1306800F00700B84233
:100D40000BD9306820F0070038433060306800F07D
:100D50000700B84201D00120E5E72878400705D513
:100D60006068E96820F4E060084360602878000764
:100D700006D56068296920F4605040EAC1006060CF
:100D800000F038F86168084AC1F30311515CC840AB
:100D90000649086006480068FFF782FE0020C2E7A7
:100DA0000020024000100240F42900081400002036
:100DB0000C0000200448054900684968044AC1F352
:100DC0000221515CC840704714000020001002400E
:100DD000042A00080448054900684968044AC1F328
:100DE000C221515CC840704714000020001002402E
:100DF000042A000812A185B00FC98DE80F0014A0C5
:100E0000144A006804905168134801F00C03042B45
:100E100010D0082B0ED1C1F38343C9031DF8030082
:100E20000AD5516804AAC1F34041515C0A4A5043B3
:100E3000B0FBF1F005B0704708494843FAE70000FD
:100E400002030405060708090A0B0C0D0E0F10100B
:100E5000010200000010024000127A0000093D006B
:100E60002DE9F84F040070D02078C04DC00749D05C
:100E70006868C0F38100012807D06868C0F381006A
:100E8000022809D16868C00306D52868800339D5CF
:100E900060680028E7D035E06068B0F5803F0BD08F
:100EA00010B1B0F5A02F11D0286820F48030286050
:100EB000286820F4802002E0286840F48030286010
:100EC000606890B1FFF7CCFD06460AE0286840F460
:100ED00080202860F0E700BFFFF7C2FD801B642878
:100EE00073D828688003F7D50CE0FFF7B9FD0646F4
:100EF00005E000BFFFF7B4FD801B6428F0D8286828
:100F00008003F7D420789A4E80074FF001094FF004
:100F1000000839D5686810F00C0F07D06868C0F376
:100F20008100022809D16868C00306D428688007B8
:100F300014D52069012808D110E02069B0B1C6F8A5
:100F40000090FFF78DFD074605E00AE1FFF788FDF9
:100F5000C01B0228C4D828688007F7D528686169B3
:100F600020F0F80040EAC10028600DE0C6F80080DB
:100F7000FFF776FD074604E0FFF772FDC01B02286D
:100F800023D828688007F7D4207800072CD5794823
:100F9000A169D9B1C0F80090FFF762FD074604E0EF
:100FA000FFF75EFDC01B02280FD8686A8007F7D5DF
:100FB00071484FF4FA510068B0FBF1F0009000BFA7
:100FC0000098411E0091FAD20EE080E0C0F8008047
:100FD000FFF746FD074604E0FFF742FDC01B02286D
:100FE00075D8686A8007F7D42078400760D5E8692B
:100FF0000027C00008D4E86940F08050E861E86943
:10100000012700F0805000905C480168C90513D4A6
:101010000168834641F480710160FFF721FD82463B
:1010200006E000BFFFF71CFDA0EB0A0064284ED8C5
:10103000DBF80000C005F5D5E06801280AD008B14A
:10104000052813D0286A20F001002862286A20F0C1
:10105000040002E0286A40F001002862E06841F2E2
:10106000883B98B1FFF7FCFC82460BE0286A40F011
:1010700004002862EEE700BFFFF7F2FCA0EB0A01D4
:1010800059455AD8286A8007F6D50CE0FFF7E8FCE6
:10109000824605E0FFF7E4FCA0EB0A0159454CD875
:1010A000286A8007F6D41FB1E86920F08050E86113
:1010B000E06988B36968C1F38101022944D002283C
:1010C000C6F8608004D0FFF7CBFC044638E034E07B
:1010D000FFF7C6FC074604E0FFF7C2FCC01B02286E
:1010E0002BD828688001F7D4206AB0F5803F05D15D
:1010F0006868A16820F4003008436860D4E90801FA
:101100000843696821F4741108436860C6F8609068
:10111000FFF7A6FC044606E025E000BFFFF7A0FCB1
:10112000001B022809D828688001F7D51BE000BF02
:10113000FFF796FC001B022802D90320BDE8F88FB8
:1011400028688001F4D40EE00128F7D06868226A8C
:1011500000F48031914204D1616A00F47010884239
:1011600001D00120EAE70020E8E70000001002407B
:1011700000004242800442421400002000700040FF
:1011800010B5401EB0F1807F01D3012010BD4FF09B
:10119000E02460610F21601701F030FA0020A061A7
:1011A00007202061002010BD7047704710B590F8EF
:1011B0003C20012A22D0012280F83C20CA688C6899
:1011C00022F4407222434C6822F4806222430C686D
:1011D00022F4006222430C6922F4805222434C69BB
:1011E00022F400522243C969002322F480420A43B8
:1011F00001684A6480F83C30002010BD022010BD18
:1012000070B590F83C20012A26D0012480F83C409B
:10121000022280F83D2003685A689D6822F070061B
:101220000A6832435A600D4B02689A4208D0B2F104
:10123000804F05D00A4B9A4202D00A4B9A4204D101
:10124000496825F080031943916080F83D400021F2
:1012500080F83C10084670BD022070BD002C014093
:10126000000400400008004010B5040003D094F8CA
:101270003D0010B107E0012010BD002084F83C00C3
:10128000204600F01FF8022084F83D00211D206850
:1012900000F0B0FE012084F8460084F83E0084F897
:1012A0003F0084F8400084F8410084F8420084F84C
:1012B000430084F8440084F8450084F83D00002091
:1012C00010BD000038B5054600681C4A1C49904214
:1012D0001FD1886940F40060886188691A4C00F465
:1012E000006000901748206010206060002080217E
:1012F000C4E90201890021618900C4E90510E061A7
:101300002046FFF745FA08B1FEF7AEFF6C62656252
:1013100038BDB0F1804FFBD1C86940F00100C86111
:10132000C869002200F00100009011461C20FFF760
:1013300003FCBDE838401C20FFF7F0BB002C014047
:10134000001002401C0002402401002090F83D10D3
:10135000012901D001207047022180F83D10016869
:10136000CA6842F00102CA6000680B49884208D08E
:10137000B0F1804F05D00949884202D0084988421F
:1013800004D1816801F00701062903D0016841F00A
:101390000101016000207047002C01400004004062
:1013A0000008004070B5044690F83C00012817D0B2
:1013B000012584F83C50022084F83D0020688268B2
:1013C00022F0770222F47F4282600868502830D0F1
:1013D0000DDC20284DD005DC98B310283BD148E027
:1013E000022070BD302844D0402834D139E0602834
:1013F00028D0702806D0B0F5805F2CD0B0F5005F03
:1014000029D10AE0CB68D1E90121206800F0AAFEC9
:101410002068816841F0770109E0CB68D1E90121BA
:10142000206800F09FFE2068816841F4804181605F
:1014300011E0CA684968206800F048FF5021206820
:1014400007E016E0CA684968206800F050FF602194
:10145000206800F091FE84F83D50002084F83C00A4
:1014600070BDCA684968206800F030FF40212068DC
:10147000EFE7226801461046EBE77047704770B50A
:101480000446006801694FF00005C943890715D477
:10149000C168C943890711D4E91E01610120207781
:1014A000206880698007204602D0FFF7E7FF04E04C
:1014B00000F0BEF8204600F04DF92577206801695C
:1014C000C943490717D4C168C943490713D46FF00A
:1014D00004010161022020772068806910F4407FB8
:1014E000204602D0FFF7CAFF04E000F0A1F8204632
:1014F00000F030F9257720680169C943090716D43F
:10150000C168C943090712D46FF0080101610420C2
:1015100020772068C0698007204602D0FFF7AEFF21
:1015200004E000F085F8204600F014F925772068E3
:101530000169C943C90617D4C168C943C90613D490
:101540006FF010010161082020772068C06910F455
:10155000407F204602D0FFF791FF04E000F068F8DA
:10156000204600F0F7F8257720680169C943C907CC
:1015700008D1C168C943C90704D1891E0161204649
:1015800000F00AFA20680169C943090609D4C16854
:10159000C943090605D46FF0800101612046FFF7B9
:1015A00003FE20680169C943490609D4C168C943DB
:1015B000490605D46FF040010161204600F000FAB1
:1015C00020680169C94389060BD4C168C9438906EB
:1015D00007D46FF0200101612046BDE87040FFF79D
:1015E000E4BD70BD00B585B000210091019102916C
:1015F000039100680B49884212D10B48816941F080
:10160000040181618069694600F0040004904FF490
:10161000807000900220019003900448FFF730F999
:1016200005B000BD002C0140001002400008014040
:10163000704770B5044690F83C000D4601280AD06A
:10164000012084F83C0042B1042A18D0082A2AD08C
:101650000C2A4DD139E0022070BD206800F094FDC5
:101660002068816941F0080181612068816921F069
:1016700004018161206881692A69114311E02068B1
:1016800000F0AAFD2068816941F400618161206851
:10169000816921F480618161206881692A6941EA58
:1016A0000221816124E0206800F0C2FD2068C16948
:1016B00041F00801C1612068C16921F00401C161E4
:1016C0002068C1692A69114311E0206800F0DCFD3F
:1016D0002068C16941F40061C1612068C16921F4D9
:1016E0008061C1612068C1692A6941EA0221C16142
:1016F000002084F83C0070BD10B5040003D094F8BD
:101700003D0010B107E0012010BD002084F83C002E
:10171000204600F01EF8022084F83D00211D2068BC
:1017200000F068FC012084F8460084F83E0084F84C
:101730003F0084F8400084F8410084F8420084F8B7
:10174000430084F8440084F8450084F83D000020FC
:1017500010BD704700F0D0BE704700002DE9F04189
:1017600017460D0004460CD0042D11D0082D16D0BC
:1017700094F84100022819D094F84100012818D0AB
:101780009AE094F83E00022810D094F83E00F5E765
:1017900094F83F00022809D094F83F00EEE794F84F
:1017A0004000022802D094F84000E7E70220BDE89C
:1017B000F0810FB9002B7FD14349444E444A0220A7
:1017C00045B1042D16D0082D24D084F841000C2DED
:1017D0003AD164E084F83E00606A8162606A39460A
:1017E000C662606A02632268606A3432FEF7FEFFF6
:1017F000F0BB1FE084F83F00A06A8162A06A39460E
:10180000C662A06A02632268A06A3832FEF7EEFF61
:1018100070BB14E084F84000E06A8162E06A3946F7
:10182000C662E06A02632268E06A3C32FEF7DEFFCD
:10183000F0B92FE02068C16841F4007103E020682E
:10184000C16841F48061C16001222946206800F02E
:1018500007FC20492068884203D1426C42F40042D0
:101860004264206888420AD0B0F1804F07D000E07F
:1018700022E01949884202D01849884204D181687F
:1018800001F00701062903D0016841F00101016060
:1018900000208CE72068C16841F40061D3E7206B29
:1018A0008162206B3946C662206B02632268206B1E
:1018B0004032FEF79BFF08B1012078E72068C1683D
:1018C00041F48051BFE700007B200008D9200008C8
:1018D00011210008002C01400004004000080040D5
:1018E00070B5044600680D0006D0042D0AD0082DFE
:1018F0003AD00C2D0DD13DE0C16821F40071C160DA
:10190000606A04E0C16821F48061C160A06AFEF7EA
:1019100049FE00222946206800F0A2FB1D4B41F23F
:10192000111120688A10984209D1036A0B4206D12E
:10193000036A134203D1436C23F4004343642068D9
:10194000036A0B4206D1016A114203D1016821F0FA
:101950000101016001209DB1042D14D0082D15D086
:1019600084F84100002070BDC16821F40061C160AD
:10197000E06ACCE7C16821F48051C160206BC6E702
:1019800084F83E00EEE784F83F00EBE784F840007F
:10199000E8E70000002C01400748816B491C816387
:1019A0000A2908D1002181630448016809B90A2184
:1019B0000160491E016070471800002000000020EF
:1019C0007047704770B5026804461068D168536963
:1019D00010F00F0F52D003F0010501F490762E4362
:1019E0005FD0C20705D0CA0503D5E26B42F0010201
:1019F000E263420705D5DA0703D0E26B42F0020248
:101A0000E263820705D5DA0703D0E26B42F00402F5
:101A1000E263020707D501F020022A4303D0E26BFC
:101A200042F00802E263E26B002A33D0800604D55C
:101A3000880602D5204600F082FC20684069E16BF0
:101A4000C0F38010090700D428B3204600F069FCD9
:101A50002068416949061AD5416921F04001416178
:101A6000606BA0B12D494163606BFEF79BFD0028C0
:101A700010D0606B416BBDE870400847830610D5FD
:101A80008B060ED52046BDE8704000F058BC2046BD
:101A9000FFF797FF70BD2046FFF793FF0020E0633C
:101AA00070BD03062BD50B0629D594F839002128E3
:101AB000F6D1A068B0F5805F01D12069B0B1206A8D
:101AC000411C2162216800784860E08C401E0004BF
:101AD000000CE084E4D12068C16821F08001C1607D
:101AE0002068C16841F04001C16070BD206A008873
:101AF000C0F308005060206A801C2062E5E74006C1
:101B0000F3D54806F1D5D168204621F04001D160D7
:101B1000202184F8391000F014F970BD1323000857
:101B200070B5040004D094F83900002510B106E027
:101B3000012070BD84F83850204600F023F824209E
:101B400084F839002068C16821F40051C160204642
:101B500000F03CFC2068016921F49041016120689B
:101B6000416921F02A0141612068C16841F40051B6
:101B7000C160E563202084F8390084F83A00002031
:101B800070BD000030B585B000240094019402942B
:101B900003940068184988422CD11848816941F49F
:101BA00080418161816901F480410491816941F042
:101BB000040181618069124D00F0040004904FF42B
:101BC000007000900220019003200390694628468F
:101BD000FEF756FE2815CDE9000469462846029412
:101BE000FEF74EFE002211462520FEF7A5FF252018
:101BF000FEF794FF05B030BD0038014000100240F0
:101C00000008014090F83A30202B22D1F9B1F2B10E
:101C100090F83830012B1CD081628285C28500216A
:101C2000C163222280F83A2080F838100168CA681F
:101C300042F48072CA6001684A6942F001024A6156
:101C40000068C16841F02001C16000207047012098
:101C500070470220704700000A4801780A4842296C
:101C600004D0412904D04D2904D005E0002102E030
:101C7000012100E002210170012202490348FFF71F
:101C8000C1BF000005000020040000206801002002
:101C90002DE9F843044690F839001F4616460D46D4
:101CA00020284CD1C5B1BEB194F83800012846D0E7
:101CB000012084F838004FF00008C4F83C8021204F
:101CC00084F83900FEF7CCFEA6848146E684A0683D
:101CD000B0F5805F03D004E00120BDE8F8832069FF
:101CE00028B12E465FF0000584F838800EE000260B
:101CF000FAE78021204600F0C5FBA0B9AEB116F886
:101D0000010B21684860E08C401EE084E08C4B466B
:101D10004FF0000200970028EBD14FF04001204621
:101D200000F0B0FB30B10320D7E735F8020BC0F369
:101D30000800E6E7202084F839000020CDE70220E3
:101D4000CBE77047FEE700003EB500241148009441
:101D5000019402940E4984600160047304750125A6
:101D600005614FF460214460C161FEF701FB08B1D9
:101D7000FEF77AFA0820CDE9000569460294054885
:101D8000FEF774FA002801D0FEF76EFA3EBD00009F
:101D90000024014064000020094808B5416941F071
:101DA000010141614069002200F0010000901146EC
:101DB0000C20FEF7C1FEBDE808400C20FEF7AEBEC9
:101DC000001002400D4808B5816941F02001816191
:101DD000816901F020010091816941F00801816170
:101DE000816901F008010091816941F0040181617C
:101DF000806900F00400009008BD0000001002405F
:101E000010B596B000240F9410941194129413946A
:101E10001C2108A81494FEF78EF920216846FEF7CD
:101E20008AF927482549C0E900145A21C0E902412E
:101E3000046144618461FFF717FA08B1FEF714FAF0
:101E40004FF480500F900FA91D48FFF7ABFA08B16F
:101E5000FEF70AFA1A48FFF74FFC08B1FEF704FA3A
:101E6000139413A916481494FFF7CAF908B1FEF7A2
:101E7000FBF96020CDE908040A940B940C940D94AE
:101E8000002208A90E480E94FFF7D3FB08B1FEF715
:101E9000EBF900944FF40050CDE904400294019412
:101EA0000394694606480794FFF780F908B1FEF7E6
:101EB000DBF90348FFF796FB16B010BD002C01407C
:101EC0009400002010B586B00024164800940194B8
:101ED0000294039404944FF08041059401604FF400
:101EE0003471C0E901146321C0E903148461FFF770
:101EF000BBF908B1FEF7B8F94FF48050009069467D
:101F00000848FFF74FFA08B1FEF7AEF9049404A9A8
:101F100004480594FFF774F9002801D0FEF7A4F9EE
:101F200006B010BDDC0000200C4810B50A49016065
:101F30004FF4E1314160002181600C22C160C0E9B1
:101F400004128161C161FFF7EBFD002803D0BDE8F9
:101F50001040FEF789B910BD00380140680100202B
:101F6000FEE7FEE770477047FEF780BD30B593B0DF
:101F700028216846FEF7DFF814210AA8FEF7DBF8EF
:101F8000002501200F9510951195010412958DE8FB
:101F9000230004904FF4E010CDE9081002240794C8
:101FA0006846FEF75DFF08B172B6FEE70AA90F208A
:101FB00081E831004FF48060CDE90D0502210AA8C7
:101FC000FEF762FE08B172B6FEE74FF400401190D2
:101FD0000F940FA8FEF7E2FD002801D072B6FEE7CD
:101FE00013B030BD704700000148FFF748BA000049
:101FF000DC000020F0B50268164B174C174D4FF06F
:102000008047984205D0B84203D0A04201D0A842F0
:1020100003D122F070064A683243984205D0B84294
:1020200003D0A04201D0A84203D122F44074CA6870
:1020300022434C6922F08002224302608A68C26215
:102040000A688262984201D10969016301214161F4
:10205000F0BD0000002C01400004004000080040DA
:1020600010B501F01F030121046A99408C430462FA
:10207000016A9A401143016210BD10B5446A012102
:10208000626A824205D121778069F8B984F83E10EE
:102090001CE0A26A824206D1022222778069A8B996
:1020A00084F83F1012E0E26A824206D104222277CD
:1020B000806958B984F8401008E0226B824205D14B
:1020C00008222277806908B984F841102046FFF77A
:1020D00041FB0020207710BD10B5446A616A81423F
:1020E00001D101200DE0A16A814201D1022008E066
:1020F000E16A814201D1042003E0216B814201D1D8
:10210000082020772046FFF727FB0020207710BD0E
:1021100010B5446A0121626A824203D1217784F8B2
:102120003E1019E0A26A824204D10220207784F88E
:102130003F1011E0E26A824204D10420207784F843
:10214000401009E0226B824204D10820207784F8F5
:10215000411001E084F83D102046FFF78EF9002081
:10216000207710BD10B5846842EA032224F47F442E
:102170000A432243826010BD826822F070020A4343
:1021800042F007018160704730B5026A22F0010217
:102190000262026A4368846924F073050C682C4368
:1021A00022F002058A682A430A4DA8420BD122F088
:1021B0000805CA6823F440732A434D6922F00402DB
:1021C0001D438B692B43436084614968416302620C
:1021D00030BD0000002C014030B5026A22F0100230
:1021E0000262026A436884690D6824F4E64444EAA2
:1021F00005248D6822F0200242EA05120B4DA84208
:102200000ED1CD6822F0800242EA05124D6923F416
:10221000406343EA85038D6922F0400243EA850367
:102220004360846149688163026230BD002C0140D3
:1022300030B5026A22F480720262036A4268C4699D
:1022400023F4007324F073050C682C438D6843EA73
:1022500005230C4DA8420ED1CD6823F4006343EA58
:1022600005234D6922F4405242EA05128D6923F498
:10227000806342EA05124260C4614968C163036237
:1022800030BD0000002C014030B5026A22F48052BB
:102290000262046A4268C3690D6823F4E64343EAB4
:1022A00005238D6824F4005444EA0534064DA84201
:1022B00004D14D6922F4804242EA85124260C36132
:1022C00049680164046230BD002C014010B5036A06
:1022D000046A24F001040462846924F0F00444EAEE
:1022E000021423F00A020A438461026210BD10B591
:1022F000036A23F0100303628369046A23F47043C2
:1023000043EA023224F0A00343EA01118261016230
:1023100010BD10B5406A0021C185C184FFF751FB93
:1023200010BD0168CA6822F49072CA6001684A69E7
:1023300022F001024A61202180F83A10704710B55E
:1023400090F83A10222901D0022010BD82684FF483
:1023500080539A4201D1016921B1816A9A421BD00E
:102360004AB10AE00268816A5268C2F308020A8030
:10237000816A891C08E0026972B10268526802F041
:102380007F020A70816A491C8162C18D491E09045D
:10239000090CC18503D016E002685268F1E70168B4
:1023A000CA6822F02002CA600168CA6822F48072FA
:1023B000CA6001684A6922F001024A61202180F85E
:1023C0003A10FFF749FC002010BD000070B504462C
:1023D00000680169E26821F44051114301612169FB
:1023E000A0680843616908432168CA6841F20C6328
:1023F0009A430243CA6020684169A26921F440718E
:10240000114341611E492068884202D1FEF7E2FC77
:1024100001E0FEF7CFFC00EBC00101EB00126068A9
:1024200064218000B2FBF0F3B3FBF1F36FF0180608
:102430007343B2FBF0F5B2FBF0F605EB83053223F4
:1024400003EB0515B5FBF1F5B6FBF1F605F0F0056C
:1024500005EB0615B2FBF0F6B2FBF0F0B0FBF1F0C5
:102460006FF01802504306EB800003EB0010B0FB46
:10247000F1F0216800F00F002844886070BD000072
:10248000003801402DE9F041984617460E460446B3
:10249000069D1DE0681C1BD02DB1FEF7E1FAA0EBF4
:1024A0000800A84214D92068C16821F4D071C16025
:1024B0002068416921F001014161202084F8390040
:1024C00084F83A00002084F838000320BDE8F08149
:1024D0002068006836EA000004D00020B842D9D055
:1024E0000020F3E70120F9E70148FFF76BBA00008D
:1024F00068010020FEE7000070B51E4C60680128EE
:102500001CD1A06800251E2819D0401CA060E068DE
:10251000194E00281948294618D0FFF7E1F9192368
:1025200006F1DC0200211548FFF718F9A06806F152
:10253000780156F8200000F03DF8E56070BD0021FC
:102540000E48A560FFF7CCF9656070BDFFF7C8F9CC
:10255000094A1923783200210848FFF7FFF8A068DC
:10256000054956F82000DC3100F024F80120E06035
:1025700070BD000018000020A80100209400002079
:1025800010B5F023074A00210748FFF7E7F807488E
:1025900006490068783100F00DF8054901204860CF
:1025A00010BD00000C2A000894000020A8010020A3
:1025B00018000020C0F30722C3B230B5C0F30740B3
:1025C000120442EA00221A4300203924162315027D
:1025D00002D541F8204001E041F820305200401C73
:1025E0001828F4DB0020086630BD0000014A0249CB
:1025F00000F023B85D260008600000200907090EDE
:10260000002804DB00F1E02080F80014704700F09F
:102610000F0000F1E02080F8141D704702E008C8A8
:10262000121F08C1002AFAD170477047002001E04C
:1026300001C1121F002AFBD170472DE9F041164657
:102640000F460446002503E03946B047641C6D1C64
:1026500020780028F8D12846BDE8F08113B54FF660
:10266000FF73012269460248FFF712FB00981CBD68
:102670006801002070B5104C206A10B1FF2802D00C
:1026800004E0052001E06FF0040060620B4E0025BD
:10269000D4E9080101440020C4F8201046F82010B5
:1026A000401C1E28FADBFFF76BFF1E20FEF7D6F852
:1026B0006D1DFF2DECDB70BD18000020A80100206F
:1026C00070B5114CA06918B1B0F57F4F03D004E08C
:1026D0004FF4A06000E00D48E0610D4E002500BF02
:1026E000D4E9060101440020C4F8181046F820106F
:1026F000401C1E28FADBFFF743FF1E20FEF7AEF852
:102700006D1DFF2DECDB70BD1800002000FBFFFFEE
:10271000A801002070B5114C206918B1B0F57F0FE9
:1027200003D004E04FF4A02000E00D4860610D4E9E
:10273000002500BFD4E9040101440020C4F81010B2
:1027400046F82010401C1E28FADBFFF719FF1E2058
:10275000FEF784F86D1DFF2DECDB70BD1800002026
:102760000000FBFFA801002070B50021104B0A46B5
:1027700043F82120491C1E29FADB1E2802D91E20FD
:10278000002101E000210AE00A4A146843F82140D0
:1027900003EB8104556865609268C91CA2608142A0
:1027A000F2D3FFF7EDFEBDE870403220FEF756B8D9
:1027B000A80100205400002070B51C4C2078B0B156
:1027C000012821D002282FD1FFF754FFFFF752FF35
:1027D0005FF00205FFF74EFF6D1C062DFADB207837
:1027E000F0B101281ED002281ED100201BE0FFF707
:1027F00091FFFFF78FFF0225FFF78CFF6D1C062D61
:10280000FADB00F071F8EAE7FFF75AFFFFF758FF2D
:102810005FF00205FFF754FF6D1C062DFADBDEE7C3
:10282000012000E00220207070BD00001800002090
:1028300070B519494FF47F021312486BFF24032827
:1028400005D030B1012809D002280BD00DE00020BE
:10285000486301F1280585E81C0006E08B62C1E9A8
:102860000B4202E08C62C1E90B23401C4863D1E9B2
:102870000A320C6B0949002001EB800541F8203039
:10288000C5E90124C01C1E28F6DBFFF779FEBDE870
:102890007040C820FDF7E2BF18000020A80100200A
:1028A00010B500F05FF803480068BDE81040FFF77E
:1028B0005BBF0000000000200748007830B101280D
:1028C00006D0022806D005A0FFF790BEFFF774BF20
:1028D000FFF7AEBFFFF7E4BF040000206D6973731C
:1028E00020696E707574210000200549024600BF02
:1028F00041F82020401C1E28FADBFFF741BE0000F3
:10290000A8010020FEF7BAF8FFF730FBFFF75AFAEC
:10291000FFF742FAFFF774FAFFF716FAFFF704FB26
:10292000FFF7D0FA0748FEF711FD012206490748D4
:10293000FFF768F906A0FFF759FE00BFFFF7BCFFDD
:10294000FCE70000DC0000200500002068010020FA
:102950005753323831322072756E696E672E2E2EC3
:102960000000000010B52148FDF7BCFD1F48FDF731
:10297000FBFC41F288321E49904201D91E2003E03F
:10298000B0F57A6F02D91420086010BD40F6C41269
:10299000904201D90A20F7E740F6FC02904201D9A3
:1029A0000920F1E740F69802904201D90820EBE7B0
:1029B00040F63402904201D90720E5E7B0F5FA6FFE
:1029C00001D90620E0E740F26C72904201D905205F
:1029D000DAE7B0F5E16F01D90420D5E740F2A4624F
:1029E000904201D90320CFE70220CDE76400002008
:1029F00000000020000000000000000001020304AD
:102A0000060708090000000001020304000000009E
:102A100000000000000000000000000000000000B6
:102A200000000000000000000000000000000000A6
:102A30000000000000000000000000000000000096
:102A40000000000000000000000000000000000086
:102DC000000000000000000000000000EC2D0008E2
:102DD00000000020640000001C260008502E00089F
:102DE00064000020840600002C2600080A00000071
:102DF00000000000010000001000000000000000C2
:102E00000024F400000000000000000000000000AA
:102E100000000000000000000000000000000000B2
:102E200000000000000000000000000000000000A2
:102E30000000000000000000000000000000000092
:102E40000000FF0000FF0000FF0000000000000085
:04000005080000ED02
:00000001FF
